{
	"Vault.sol": {
		"Vault": {
			"abi": [
				{
					"inputs": [
						{
							"internalType": "address",
							"name": "_token",
							"type": "address"
						}
					],
					"stateMutability": "nonpayable",
					"type": "constructor"
				},
				{
					"inputs": [
						{
							"internalType": "address",
							"name": "",
							"type": "address"
						}
					],
					"name": "balanceOf",
					"outputs": [
						{
							"internalType": "uint256",
							"name": "",
							"type": "uint256"
						}
					],
					"stateMutability": "view",
					"type": "function"
				},
				{
					"inputs": [
						{
							"internalType": "uint256",
							"name": "_amount",
							"type": "uint256"
						}
					],
					"name": "deposit",
					"outputs": [],
					"stateMutability": "nonpayable",
					"type": "function"
				},
				{
					"inputs": [],
					"name": "token",
					"outputs": [
						{
							"internalType": "contract IERC20",
							"name": "",
							"type": "address"
						}
					],
					"stateMutability": "view",
					"type": "function"
				},
				{
					"inputs": [],
					"name": "totalSupply",
					"outputs": [
						{
							"internalType": "uint256",
							"name": "",
							"type": "uint256"
						}
					],
					"stateMutability": "view",
					"type": "function"
				},
				{
					"inputs": [
						{
							"internalType": "uint256",
							"name": "_shares",
							"type": "uint256"
						}
					],
					"name": "withdraw",
					"outputs": [],
					"stateMutability": "nonpayable",
					"type": "function"
				}
			],
			"devdoc": {
				"kind": "dev",
				"methods": {},
				"version": 1
			},
			"evm": {
				"assembly": "    /* \"Vault.sol\":760:2230  contract Vault {... */\n  mstore(0x40, 0xa0)\n    /* \"Vault.sol\":900:969  constructor(address _token) {... */\n  callvalue\n  dup1\n  iszero\n  tag_1\n  jumpi\n  0x00\n  dup1\n  revert\ntag_1:\n  pop\n  mload(0x40)\n  sub(codesize, bytecodeSize)\n  dup1\n  bytecodeSize\n  dup4\n  codecopy\n  dup2\n  add\n  0x40\n  dup2\n  swap1\n  mstore\n  tag_2\n  swap2\n  tag_3\n  jump\t// in\ntag_2:\n  sub(shl(0xa0, 0x01), 0x01)\n    /* \"Vault.sol\":939:961  token = IERC20(_token) */\n  and\n  0x80\n  mstore\n    /* \"Vault.sol\":760:2230  contract Vault {... */\n  jump(tag_7)\n    /* \"#utility.yul\":14:304   */\ntag_3:\n    /* \"#utility.yul\":84:90   */\n  0x00\n    /* \"#utility.yul\":137:139   */\n  0x20\n    /* \"#utility.yul\":125:134   */\n  dup3\n    /* \"#utility.yul\":116:123   */\n  dup5\n    /* \"#utility.yul\":112:135   */\n  sub\n    /* \"#utility.yul\":108:140   */\n  slt\n    /* \"#utility.yul\":105:157   */\n  iszero\n  tag_9\n  jumpi\n    /* \"#utility.yul\":153:154   */\n  0x00\n    /* \"#utility.yul\":150:151   */\n  dup1\n    /* \"#utility.yul\":143:155   */\n  revert\n    /* \"#utility.yul\":105:157   */\ntag_9:\n    /* \"#utility.yul\":179:195   */\n  dup2\n  mload\n  sub(shl(0xa0, 0x01), 0x01)\n    /* \"#utility.yul\":224:255   */\n  dup2\n  and\n    /* \"#utility.yul\":214:256   */\n  dup2\n  eq\n    /* \"#utility.yul\":204:274   */\n  tag_10\n  jumpi\n    /* \"#utility.yul\":270:271   */\n  0x00\n    /* \"#utility.yul\":267:268   */\n  dup1\n    /* \"#utility.yul\":260:272   */\n  revert\n    /* \"#utility.yul\":204:274   */\ntag_10:\n    /* \"#utility.yul\":293:298   */\n  swap4\n    /* \"#utility.yul\":14:304   */\n  swap3\n  pop\n  pop\n  pop\n  jump\t// out\ntag_7:\n    /* \"Vault.sol\":760:2230  contract Vault {... */\n  mload(0x80)\n  codecopy(0x00, dataOffset(sub_0), dataSize(sub_0))\n  0x00\n  assignImmutable(\"0x2cc0d3dcb20652cd8f106aee76b6a7391771a130885634c0eb2bbe3cde796691\")\n  return(0x00, dataSize(sub_0))\nstop\n\nsub_0: assembly {\n        /* \"Vault.sol\":760:2230  contract Vault {... */\n      mstore(0x40, 0x80)\n      callvalue\n      dup1\n      iszero\n      tag_1\n      jumpi\n      0x00\n      dup1\n      revert\n    tag_1:\n      pop\n      jumpi(tag_2, lt(calldatasize, 0x04))\n      shr(0xe0, calldataload(0x00))\n      dup1\n      0x18160ddd\n      eq\n      tag_3\n      jumpi\n      dup1\n      0x2e1a7d4d\n      eq\n      tag_4\n      jumpi\n      dup1\n      0x70a08231\n      eq\n      tag_5\n      jumpi\n      dup1\n      0xb6b55f25\n      eq\n      tag_6\n      jumpi\n      dup1\n      0xfc0c546a\n      eq\n      tag_7\n      jumpi\n    tag_2:\n      0x00\n      dup1\n      revert\n        /* \"Vault.sol\":820:843  uint public totalSupply */\n    tag_3:\n      tag_8\n      sload(0x00)\n      dup2\n      jump\n    tag_8:\n      mload(0x40)\n        /* \"#utility.yul\":160:185   */\n      swap1\n      dup2\n      mstore\n        /* \"#utility.yul\":148:150   */\n      0x20\n        /* \"#utility.yul\":133:151   */\n      add\n        /* \"Vault.sol\":820:843  uint public totalSupply */\n    tag_10:\n      mload(0x40)\n      dup1\n      swap2\n      sub\n      swap1\n      return\n        /* \"Vault.sol\":1811:2227  function withdraw(uint _shares) external {... */\n    tag_4:\n      tag_12\n      tag_13\n      calldatasize\n      0x04\n      tag_14\n      jump\t// in\n    tag_13:\n      tag_15\n      jump\t// in\n    tag_12:\n      stop\n        /* \"Vault.sol\":850:891  mapping(address => uint) public balanceOf */\n    tag_5:\n      tag_8\n      tag_17\n      calldatasize\n      0x04\n      tag_18\n      jump\t// in\n    tag_17:\n      mstore(0x20, 0x01)\n      0x00\n      swap1\n      dup2\n      mstore\n      0x40\n      swap1\n      keccak256\n      sload\n      dup2\n      jump\n        /* \"Vault.sol\":1251:1803  function deposit(uint _amount) external {... */\n    tag_6:\n      tag_12\n      tag_22\n      calldatasize\n      0x04\n      tag_14\n      jump\t// in\n    tag_22:\n      tag_23\n      jump\t// in\n        /* \"Vault.sol\":782:811  IERC20 public immutable token */\n    tag_7:\n      tag_24\n      immutable(\"0x2cc0d3dcb20652cd8f106aee76b6a7391771a130885634c0eb2bbe3cde796691\")\n      dup2\n      jump\n    tag_24:\n      mload(0x40)\n      sub(shl(0xa0, 0x01), 0x01)\n        /* \"#utility.yul\":849:881   */\n      swap1\n      swap2\n      and\n        /* \"#utility.yul\":831:882   */\n      dup2\n      mstore\n        /* \"#utility.yul\":819:821   */\n      0x20\n        /* \"#utility.yul\":804:822   */\n      add\n        /* \"Vault.sol\":782:811  IERC20 public immutable token */\n      tag_10\n        /* \"#utility.yul\":672:888   */\n      jump\n        /* \"Vault.sol\":1811:2227  function withdraw(uint _shares) external {... */\n    tag_15:\n        /* \"Vault.sol\":2067:2078  uint amount */\n      0x00\n        /* \"Vault.sol\":2126:2137  totalSupply */\n      dup1\n      sload\n        /* \"Vault.sol\":2092:2122  token.balanceOf(address(this)) */\n      mload(0x40)\n      shl(0xe0, 0x70a08231)\n      dup2\n      mstore\n        /* \"Vault.sol\":2116:2120  this */\n      address\n        /* \"Vault.sol\":2092:2122  token.balanceOf(address(this)) */\n      0x04\n      dup3\n      add\n        /* \"#utility.yul\":831:882   */\n      mstore\n        /* \"Vault.sol\":2092:2097  token */\n      immutable(\"0x2cc0d3dcb20652cd8f106aee76b6a7391771a130885634c0eb2bbe3cde796691\")\n      sub(shl(0xa0, 0x01), 0x01)\n        /* \"Vault.sol\":2092:2107  token.balanceOf */\n      and\n      swap1\n      0x70a08231\n      swap1\n        /* \"#utility.yul\":804:822   */\n      0x24\n      add\n        /* \"Vault.sol\":2092:2122  token.balanceOf(address(this)) */\n      0x20\n      mload(0x40)\n      dup1\n      dup4\n      sub\n      dup2\n      dup7\n      gas\n      staticcall\n      iszero\n      dup1\n      iszero\n      tag_32\n      jumpi\n      returndatasize\n      0x00\n      dup1\n      returndatacopy\n      revert(0x00, returndatasize)\n    tag_32:\n      pop\n      pop\n      pop\n      pop\n      mload(0x40)\n      returndatasize\n      not(0x1f)\n      0x1f\n      dup3\n      add\n      and\n      dup3\n      add\n      dup1\n      0x40\n      mstore\n      pop\n      dup2\n      add\n      swap1\n      tag_33\n      swap2\n      swap1\n      tag_34\n      jump\t// in\n    tag_33:\n        /* \"Vault.sol\":2082:2122  _shares * token.balanceOf(address(this)) */\n      tag_35\n      swap1\n        /* \"Vault.sol\":2082:2089  _shares */\n      dup5\n        /* \"Vault.sol\":2082:2122  _shares * token.balanceOf(address(this)) */\n      tag_36\n      jump\t// in\n    tag_35:\n        /* \"Vault.sol\":2081:2137  (_shares * token.balanceOf(address(this))) / totalSupply */\n      tag_37\n      swap2\n      swap1\n      tag_38\n      jump\t// in\n    tag_37:\n        /* \"Vault.sol\":2067:2137  uint amount = (_shares * token.balanceOf(address(this))) / totalSupply */\n      swap1\n      pop\n        /* \"Vault.sol\":2148:2174  _burn(msg.sender, _shares) */\n      tag_39\n        /* \"Vault.sol\":2154:2164  msg.sender */\n      caller\n        /* \"Vault.sol\":2166:2173  _shares */\n      dup4\n        /* \"Vault.sol\":2148:2153  _burn */\n      tag_40\n        /* \"Vault.sol\":2148:2174  _burn(msg.sender, _shares) */\n      jump\t// in\n    tag_39:\n        /* \"Vault.sol\":2185:2219  token.transfer(msg.sender, amount) */\n      mload(0x40)\n      shl(0xe0, 0xa9059cbb)\n      dup2\n      mstore\n        /* \"Vault.sol\":2200:2210  msg.sender */\n      caller\n        /* \"Vault.sol\":2185:2219  token.transfer(msg.sender, amount) */\n      0x04\n      dup3\n      add\n        /* \"#utility.yul\":1991:2042   */\n      mstore\n        /* \"#utility.yul\":2058:2076   */\n      0x24\n      dup2\n      add\n        /* \"#utility.yul\":2051:2085   */\n      dup3\n      swap1\n      mstore\n        /* \"Vault.sol\":2185:2190  token */\n      immutable(\"0x2cc0d3dcb20652cd8f106aee76b6a7391771a130885634c0eb2bbe3cde796691\")\n      sub(shl(0xa0, 0x01), 0x01)\n        /* \"Vault.sol\":2185:2199  token.transfer */\n      and\n      swap1\n      0xa9059cbb\n      swap1\n        /* \"#utility.yul\":1964:1982   */\n      0x44\n      add\n        /* \"Vault.sol\":2185:2219  token.transfer(msg.sender, amount) */\n      0x20\n      mload(0x40)\n      dup1\n      dup4\n      sub\n      dup2\n      0x00\n      dup8\n      gas\n      call\n      iszero\n      dup1\n      iszero\n      tag_44\n      jumpi\n      returndatasize\n      0x00\n      dup1\n      returndatacopy\n      revert(0x00, returndatasize)\n    tag_44:\n      pop\n      pop\n      pop\n      pop\n      mload(0x40)\n      returndatasize\n      not(0x1f)\n      0x1f\n      dup3\n      add\n      and\n      dup3\n      add\n      dup1\n      0x40\n      mstore\n      pop\n      dup2\n      add\n      swap1\n      tag_45\n      swap2\n      swap1\n      tag_46\n      jump\t// in\n    tag_45:\n      pop\n        /* \"Vault.sol\":1852:2227  {... */\n      pop\n        /* \"Vault.sol\":1811:2227  function withdraw(uint _shares) external {... */\n      pop\n      jump\t// out\n        /* \"Vault.sol\":1251:1803  function deposit(uint _amount) external {... */\n    tag_23:\n        /* \"Vault.sol\":1505:1516  uint shares */\n      0x00\n        /* \"Vault.sol\":1531:1542  totalSupply */\n      dup1\n      sload\n        /* \"Vault.sol\":1546:1547  0 */\n      0x00\n        /* \"Vault.sol\":1531:1547  totalSupply == 0 */\n      sub\n        /* \"Vault.sol\":1527:1690  if (totalSupply == 0) {... */\n      tag_48\n      jumpi\n      pop\n        /* \"Vault.sol\":1573:1580  _amount */\n      dup1\n        /* \"Vault.sol\":1527:1690  if (totalSupply == 0) {... */\n      jump(tag_49)\n    tag_48:\n        /* \"Vault.sol\":1648:1678  token.balanceOf(address(this)) */\n      mload(0x40)\n      shl(0xe0, 0x70a08231)\n      dup2\n      mstore\n        /* \"Vault.sol\":1672:1676  this */\n      address\n        /* \"Vault.sol\":1648:1678  token.balanceOf(address(this)) */\n      0x04\n      dup3\n      add\n        /* \"#utility.yul\":831:882   */\n      mstore\n        /* \"Vault.sol\":1648:1653  token */\n      immutable(\"0x2cc0d3dcb20652cd8f106aee76b6a7391771a130885634c0eb2bbe3cde796691\")\n      sub(shl(0xa0, 0x01), 0x01)\n        /* \"Vault.sol\":1648:1663  token.balanceOf */\n      and\n      swap1\n      0x70a08231\n      swap1\n        /* \"#utility.yul\":804:822   */\n      0x24\n      add\n        /* \"Vault.sol\":1648:1678  token.balanceOf(address(this)) */\n      0x20\n      mload(0x40)\n      dup1\n      dup4\n      sub\n      dup2\n      dup7\n      gas\n      staticcall\n      iszero\n      dup1\n      iszero\n      tag_52\n      jumpi\n      returndatasize\n      0x00\n      dup1\n      returndatacopy\n      revert(0x00, returndatasize)\n    tag_52:\n      pop\n      pop\n      pop\n      pop\n      mload(0x40)\n      returndatasize\n      not(0x1f)\n      0x1f\n      dup3\n      add\n      and\n      dup3\n      add\n      dup1\n      0x40\n      mstore\n      pop\n      dup2\n      add\n      swap1\n      tag_53\n      swap2\n      swap1\n      tag_34\n      jump\t// in\n    tag_53:\n        /* \"Vault.sol\":1633:1644  totalSupply */\n      sload(0x00)\n        /* \"Vault.sol\":1623:1644  _amount * totalSupply */\n      tag_54\n      swap1\n        /* \"Vault.sol\":1623:1630  _amount */\n      dup5\n        /* \"Vault.sol\":1623:1644  _amount * totalSupply */\n      tag_36\n      jump\t// in\n    tag_54:\n        /* \"Vault.sol\":1622:1678  (_amount * totalSupply) / token.balanceOf(address(this)) */\n      tag_55\n      swap2\n      swap1\n      tag_38\n      jump\t// in\n    tag_55:\n        /* \"Vault.sol\":1613:1678  shares = (_amount * totalSupply) / token.balanceOf(address(this)) */\n      swap1\n      pop\n        /* \"Vault.sol\":1527:1690  if (totalSupply == 0) {... */\n    tag_49:\n        /* \"Vault.sol\":1702:1727  _mint(msg.sender, shares) */\n      tag_56\n        /* \"Vault.sol\":1708:1718  msg.sender */\n      caller\n        /* \"Vault.sol\":1720:1726  shares */\n      dup3\n        /* \"Vault.sol\":1702:1707  _mint */\n      tag_57\n        /* \"Vault.sol\":1702:1727  _mint(msg.sender, shares) */\n      jump\t// in\n    tag_56:\n        /* \"Vault.sol\":1291:1803  {... */\n      pop\n        /* \"Vault.sol\":1251:1803  function deposit(uint _amount) external {... */\n      pop\n      jump\t// out\n        /* \"Vault.sol\":1112:1243  function _burn(address _from, uint _shares) private {... */\n    tag_40:\n        /* \"Vault.sol\":1190:1197  _shares */\n      dup1\n        /* \"Vault.sol\":1175:1186  totalSupply */\n      0x00\n      dup1\n        /* \"Vault.sol\":1175:1197  totalSupply -= _shares */\n      dup3\n      dup3\n      sload\n      tag_59\n      swap2\n      swap1\n      tag_60\n      jump\t// in\n    tag_59:\n      swap1\n      swap2\n      sstore\n      pop\n      pop\n      sub(shl(0xa0, 0x01), 0x01)\n        /* \"Vault.sol\":1208:1224  balanceOf[_from] */\n      dup3\n      and\n      0x00\n      swap1\n      dup2\n      mstore\n        /* \"Vault.sol\":1208:1217  balanceOf */\n      0x01\n        /* \"Vault.sol\":1208:1224  balanceOf[_from] */\n      0x20\n      mstore\n      0x40\n      dup2\n      keccak256\n        /* \"Vault.sol\":1208:1235  balanceOf[_from] -= _shares */\n      dup1\n      sload\n        /* \"Vault.sol\":1228:1235  _shares */\n      dup4\n      swap3\n        /* \"Vault.sol\":1208:1224  balanceOf[_from] */\n      swap1\n        /* \"Vault.sol\":1208:1235  balanceOf[_from] -= _shares */\n      tag_61\n      swap1\n        /* \"Vault.sol\":1228:1235  _shares */\n      dup5\n      swap1\n        /* \"Vault.sol\":1208:1235  balanceOf[_from] -= _shares */\n      tag_60\n      jump\t// in\n    tag_61:\n      swap1\n      swap2\n      sstore\n      pop\n      pop\n      pop\n      pop\n        /* \"Vault.sol\":1112:1243  function _burn(address _from, uint _shares) private {... */\n      jump\t// out\n        /* \"Vault.sol\":977:1104  function _mint(address _to, uint _shares) private {... */\n    tag_57:\n        /* \"Vault.sol\":1053:1060  _shares */\n      dup1\n        /* \"Vault.sol\":1038:1049  totalSupply */\n      0x00\n      dup1\n        /* \"Vault.sol\":1038:1060  totalSupply += _shares */\n      dup3\n      dup3\n      sload\n      tag_63\n      swap2\n      swap1\n      tag_64\n      jump\t// in\n    tag_63:\n      swap1\n      swap2\n      sstore\n      pop\n      pop\n      sub(shl(0xa0, 0x01), 0x01)\n        /* \"Vault.sol\":1071:1085  balanceOf[_to] */\n      dup3\n      and\n      0x00\n      swap1\n      dup2\n      mstore\n        /* \"Vault.sol\":1071:1080  balanceOf */\n      0x01\n        /* \"Vault.sol\":1071:1085  balanceOf[_to] */\n      0x20\n      mstore\n      0x40\n      dup2\n      keccak256\n        /* \"Vault.sol\":1071:1096  balanceOf[_to] += _shares */\n      dup1\n      sload\n        /* \"Vault.sol\":1089:1096  _shares */\n      dup4\n      swap3\n        /* \"Vault.sol\":1071:1085  balanceOf[_to] */\n      swap1\n        /* \"Vault.sol\":1071:1096  balanceOf[_to] += _shares */\n      tag_61\n      swap1\n        /* \"Vault.sol\":1089:1096  _shares */\n      dup5\n      swap1\n        /* \"Vault.sol\":1071:1096  balanceOf[_to] += _shares */\n      tag_64\n      jump\t// in\n        /* \"#utility.yul\":196:376   */\n    tag_14:\n        /* \"#utility.yul\":255:261   */\n      0x00\n        /* \"#utility.yul\":308:310   */\n      0x20\n        /* \"#utility.yul\":296:305   */\n      dup3\n        /* \"#utility.yul\":287:294   */\n      dup5\n        /* \"#utility.yul\":283:306   */\n      sub\n        /* \"#utility.yul\":279:311   */\n      slt\n        /* \"#utility.yul\":276:328   */\n      iszero\n      tag_70\n      jumpi\n        /* \"#utility.yul\":324:325   */\n      0x00\n        /* \"#utility.yul\":321:322   */\n      dup1\n        /* \"#utility.yul\":314:326   */\n      revert\n        /* \"#utility.yul\":276:328   */\n    tag_70:\n      pop\n        /* \"#utility.yul\":347:370   */\n      calldataload\n      swap2\n        /* \"#utility.yul\":196:376   */\n      swap1\n      pop\n      jump\t// out\n        /* \"#utility.yul\":381:667   */\n    tag_18:\n        /* \"#utility.yul\":440:446   */\n      0x00\n        /* \"#utility.yul\":493:495   */\n      0x20\n        /* \"#utility.yul\":481:490   */\n      dup3\n        /* \"#utility.yul\":472:479   */\n      dup5\n        /* \"#utility.yul\":468:491   */\n      sub\n        /* \"#utility.yul\":464:496   */\n      slt\n        /* \"#utility.yul\":461:513   */\n      iszero\n      tag_72\n      jumpi\n        /* \"#utility.yul\":509:510   */\n      0x00\n        /* \"#utility.yul\":506:507   */\n      dup1\n        /* \"#utility.yul\":499:511   */\n      revert\n        /* \"#utility.yul\":461:513   */\n    tag_72:\n        /* \"#utility.yul\":535:558   */\n      dup2\n      calldataload\n      sub(shl(0xa0, 0x01), 0x01)\n        /* \"#utility.yul\":587:618   */\n      dup2\n      and\n        /* \"#utility.yul\":577:619   */\n      dup2\n      eq\n        /* \"#utility.yul\":567:637   */\n      tag_73\n      jumpi\n        /* \"#utility.yul\":633:634   */\n      0x00\n        /* \"#utility.yul\":630:631   */\n      dup1\n        /* \"#utility.yul\":623:635   */\n      revert\n        /* \"#utility.yul\":567:637   */\n    tag_73:\n        /* \"#utility.yul\":656:661   */\n      swap4\n        /* \"#utility.yul\":381:667   */\n      swap3\n      pop\n      pop\n      pop\n      jump\t// out\n        /* \"#utility.yul\":1101:1285   */\n    tag_34:\n        /* \"#utility.yul\":1171:1177   */\n      0x00\n        /* \"#utility.yul\":1224:1226   */\n      0x20\n        /* \"#utility.yul\":1212:1221   */\n      dup3\n        /* \"#utility.yul\":1203:1210   */\n      dup5\n        /* \"#utility.yul\":1199:1222   */\n      sub\n        /* \"#utility.yul\":1195:1227   */\n      slt\n        /* \"#utility.yul\":1192:1244   */\n      iszero\n      tag_77\n      jumpi\n        /* \"#utility.yul\":1240:1241   */\n      0x00\n        /* \"#utility.yul\":1237:1238   */\n      dup1\n        /* \"#utility.yul\":1230:1242   */\n      revert\n        /* \"#utility.yul\":1192:1244   */\n    tag_77:\n      pop\n        /* \"#utility.yul\":1263:1279   */\n      mload\n      swap2\n        /* \"#utility.yul\":1101:1285   */\n      swap1\n      pop\n      jump\t// out\n        /* \"#utility.yul\":1290:1417   */\n    tag_66:\n        /* \"#utility.yul\":1351:1361   */\n      0x4e487b71\n        /* \"#utility.yul\":1346:1349   */\n      0xe0\n        /* \"#utility.yul\":1342:1362   */\n      shl\n        /* \"#utility.yul\":1339:1340   */\n      0x00\n        /* \"#utility.yul\":1332:1363   */\n      mstore\n        /* \"#utility.yul\":1382:1386   */\n      0x11\n        /* \"#utility.yul\":1379:1380   */\n      0x04\n        /* \"#utility.yul\":1372:1387   */\n      mstore\n        /* \"#utility.yul\":1406:1410   */\n      0x24\n        /* \"#utility.yul\":1403:1404   */\n      0x00\n        /* \"#utility.yul\":1396:1411   */\n      revert\n        /* \"#utility.yul\":1422:1590   */\n    tag_36:\n        /* \"#utility.yul\":1495:1504   */\n      dup1\n      dup3\n      mul\n        /* \"#utility.yul\":1526:1535   */\n      dup2\n      iszero\n        /* \"#utility.yul\":1543:1558   */\n      dup3\n      dup3\n      div\n        /* \"#utility.yul\":1537:1559   */\n      dup5\n      eq\n        /* \"#utility.yul\":1523:1560   */\n      or\n        /* \"#utility.yul\":1513:1584   */\n      tag_81\n      jumpi\n        /* \"#utility.yul\":1564:1582   */\n      tag_81\n      tag_66\n      jump\t// in\n    tag_81:\n        /* \"#utility.yul\":1422:1590   */\n      swap3\n      swap2\n      pop\n      pop\n      jump\t// out\n        /* \"#utility.yul\":1595:1812   */\n    tag_38:\n        /* \"#utility.yul\":1635:1636   */\n      0x00\n        /* \"#utility.yul\":1661:1662   */\n      dup3\n        /* \"#utility.yul\":1651:1783   */\n      tag_83\n      jumpi\n        /* \"#utility.yul\":1705:1715   */\n      0x4e487b71\n        /* \"#utility.yul\":1700:1703   */\n      0xe0\n        /* \"#utility.yul\":1696:1716   */\n      shl\n        /* \"#utility.yul\":1693:1694   */\n      0x00\n        /* \"#utility.yul\":1686:1717   */\n      mstore\n        /* \"#utility.yul\":1740:1744   */\n      0x12\n        /* \"#utility.yul\":1737:1738   */\n      0x04\n        /* \"#utility.yul\":1730:1745   */\n      mstore\n        /* \"#utility.yul\":1768:1772   */\n      0x24\n        /* \"#utility.yul\":1765:1766   */\n      0x00\n        /* \"#utility.yul\":1758:1773   */\n      revert\n        /* \"#utility.yul\":1651:1783   */\n    tag_83:\n      pop\n        /* \"#utility.yul\":1797:1806   */\n      div\n      swap1\n        /* \"#utility.yul\":1595:1812   */\n      jump\t// out\n        /* \"#utility.yul\":2096:2373   */\n    tag_46:\n        /* \"#utility.yul\":2163:2169   */\n      0x00\n        /* \"#utility.yul\":2216:2218   */\n      0x20\n        /* \"#utility.yul\":2204:2213   */\n      dup3\n        /* \"#utility.yul\":2195:2202   */\n      dup5\n        /* \"#utility.yul\":2191:2214   */\n      sub\n        /* \"#utility.yul\":2187:2219   */\n      slt\n        /* \"#utility.yul\":2184:2236   */\n      iszero\n      tag_86\n      jumpi\n        /* \"#utility.yul\":2232:2233   */\n      0x00\n        /* \"#utility.yul\":2229:2230   */\n      dup1\n        /* \"#utility.yul\":2222:2234   */\n      revert\n        /* \"#utility.yul\":2184:2236   */\n    tag_86:\n        /* \"#utility.yul\":2264:2273   */\n      dup2\n        /* \"#utility.yul\":2258:2274   */\n      mload\n        /* \"#utility.yul\":2317:2322   */\n      dup1\n        /* \"#utility.yul\":2310:2323   */\n      iszero\n        /* \"#utility.yul\":2303:2324   */\n      iszero\n        /* \"#utility.yul\":2296:2301   */\n      dup2\n        /* \"#utility.yul\":2293:2325   */\n      eq\n        /* \"#utility.yul\":2283:2343   */\n      tag_73\n      jumpi\n        /* \"#utility.yul\":2339:2340   */\n      0x00\n        /* \"#utility.yul\":2336:2337   */\n      dup1\n        /* \"#utility.yul\":2329:2341   */\n      revert\n        /* \"#utility.yul\":2378:2506   */\n    tag_60:\n        /* \"#utility.yul\":2445:2454   */\n      dup2\n      dup2\n      sub\n        /* \"#utility.yul\":2466:2477   */\n      dup2\n      dup2\n      gt\n        /* \"#utility.yul\":2463:2500   */\n      iszero\n      tag_81\n      jumpi\n        /* \"#utility.yul\":2480:2498   */\n      tag_81\n      tag_66\n      jump\t// in\n        /* \"#utility.yul\":2511:2636   */\n    tag_64:\n        /* \"#utility.yul\":2576:2585   */\n      dup1\n      dup3\n      add\n        /* \"#utility.yul\":2597:2607   */\n      dup1\n      dup3\n      gt\n        /* \"#utility.yul\":2594:2630   */\n      iszero\n      tag_81\n      jumpi\n        /* \"#utility.yul\":2610:2628   */\n      tag_81\n      tag_66\n      jump\t// in\n\n    auxdata: 0xa2646970667358221220a8851e12774f1869289b4ca4641fe7aaf67c2f1cb253e3d8cc0f19c28a70cce364736f6c63430008190033\n}\n",
				"bytecode": {
					"linkReferences": {},
					"object": "60a0604052348015600f57600080fd5b50604051610556380380610556833981016040819052602c91603c565b6001600160a01b0316608052606a565b600060208284031215604d57600080fd5b81516001600160a01b0381168114606357600080fd5b9392505050565b6080516104bd6100996000396000818160c501528181610118015281816101c7015261026801526104bd6000f3fe608060405234801561001057600080fd5b50600436106100575760003560e01c806318160ddd1461005c5780632e1a7d4d1461007857806370a082311461008d578063b6b55f25146100ad578063fc0c546a146100c0575b600080fd5b61006560005481565b6040519081526020015b60405180910390f35b61008b610086366004610388565b6100ff565b005b61006561009b3660046103a1565b60016020526000908152604090205481565b61008b6100bb366004610388565b610241565b6100e77f000000000000000000000000000000000000000000000000000000000000000081565b6040516001600160a01b03909116815260200161006f565b600080546040516370a0823160e01b81523060048201527f00000000000000000000000000000000000000000000000000000000000000006001600160a01b0316906370a0823190602401602060405180830381865afa158015610167573d6000803e3d6000fd5b505050506040513d601f19601f8201168201806040525081019061018b91906103d1565b6101959084610400565b61019f919061041d565b90506101ab3383610303565b60405163a9059cbb60e01b8152336004820152602481018290527f00000000000000000000000000000000000000000000000000000000000000006001600160a01b03169063a9059cbb906044016020604051808303816000875af1158015610218573d6000803e3d6000fd5b505050506040513d601f19601f8201168201806040525081019061023c919061043f565b505050565b600080546000036102535750806102f5565b6040516370a0823160e01b81523060048201527f00000000000000000000000000000000000000000000000000000000000000006001600160a01b0316906370a0823190602401602060405180830381865afa1580156102b7573d6000803e3d6000fd5b505050506040513d601f19601f820116820180604052508101906102db91906103d1565b6000546102e89084610400565b6102f2919061041d565b90505b6102ff338261034a565b5050565b806000808282546103149190610461565b90915550506001600160a01b03821660009081526001602052604081208054839290610341908490610461565b90915550505050565b8060008082825461035b9190610474565b90915550506001600160a01b03821660009081526001602052604081208054839290610341908490610474565b60006020828403121561039a57600080fd5b5035919050565b6000602082840312156103b357600080fd5b81356001600160a01b03811681146103ca57600080fd5b9392505050565b6000602082840312156103e357600080fd5b5051919050565b634e487b7160e01b600052601160045260246000fd5b8082028115828204841417610417576104176103ea565b92915050565b60008261043a57634e487b7160e01b600052601260045260246000fd5b500490565b60006020828403121561045157600080fd5b815180151581146103ca57600080fd5b81810381811115610417576104176103ea565b80820180821115610417576104176103ea56fea2646970667358221220a8851e12774f1869289b4ca4641fe7aaf67c2f1cb253e3d8cc0f19c28a70cce364736f6c63430008190033",
					"opcodes": "PUSH1 0xA0 PUSH1 0x40 MSTORE CALLVALUE DUP1 ISZERO PUSH1 0xF JUMPI PUSH1 0x0 DUP1 REVERT JUMPDEST POP PUSH1 0x40 MLOAD PUSH2 0x556 CODESIZE SUB DUP1 PUSH2 0x556 DUP4 CODECOPY DUP2 ADD PUSH1 0x40 DUP2 SWAP1 MSTORE PUSH1 0x2C SWAP2 PUSH1 0x3C JUMP JUMPDEST PUSH1 0x1 PUSH1 0x1 PUSH1 0xA0 SHL SUB AND PUSH1 0x80 MSTORE PUSH1 0x6A JUMP JUMPDEST PUSH1 0x0 PUSH1 0x20 DUP3 DUP5 SUB SLT ISZERO PUSH1 0x4D JUMPI PUSH1 0x0 DUP1 REVERT JUMPDEST DUP2 MLOAD PUSH1 0x1 PUSH1 0x1 PUSH1 0xA0 SHL SUB DUP2 AND DUP2 EQ PUSH1 0x63 JUMPI PUSH1 0x0 DUP1 REVERT JUMPDEST SWAP4 SWAP3 POP POP POP JUMP JUMPDEST PUSH1 0x80 MLOAD PUSH2 0x4BD PUSH2 0x99 PUSH1 0x0 CODECOPY PUSH1 0x0 DUP2 DUP2 PUSH1 0xC5 ADD MSTORE DUP2 DUP2 PUSH2 0x118 ADD MSTORE DUP2 DUP2 PUSH2 0x1C7 ADD MSTORE PUSH2 0x268 ADD MSTORE PUSH2 0x4BD PUSH1 0x0 RETURN INVALID PUSH1 0x80 PUSH1 0x40 MSTORE CALLVALUE DUP1 ISZERO PUSH2 0x10 JUMPI PUSH1 0x0 DUP1 REVERT JUMPDEST POP PUSH1 0x4 CALLDATASIZE LT PUSH2 0x57 JUMPI PUSH1 0x0 CALLDATALOAD PUSH1 0xE0 SHR DUP1 PUSH4 0x18160DDD EQ PUSH2 0x5C JUMPI DUP1 PUSH4 0x2E1A7D4D EQ PUSH2 0x78 JUMPI DUP1 PUSH4 0x70A08231 EQ PUSH2 0x8D JUMPI DUP1 PUSH4 0xB6B55F25 EQ PUSH2 0xAD JUMPI DUP1 PUSH4 0xFC0C546A EQ PUSH2 0xC0 JUMPI JUMPDEST PUSH1 0x0 DUP1 REVERT JUMPDEST PUSH2 0x65 PUSH1 0x0 SLOAD DUP2 JUMP JUMPDEST PUSH1 0x40 MLOAD SWAP1 DUP2 MSTORE PUSH1 0x20 ADD JUMPDEST PUSH1 0x40 MLOAD DUP1 SWAP2 SUB SWAP1 RETURN JUMPDEST PUSH2 0x8B PUSH2 0x86 CALLDATASIZE PUSH1 0x4 PUSH2 0x388 JUMP JUMPDEST PUSH2 0xFF JUMP JUMPDEST STOP JUMPDEST PUSH2 0x65 PUSH2 0x9B CALLDATASIZE PUSH1 0x4 PUSH2 0x3A1 JUMP JUMPDEST PUSH1 0x1 PUSH1 0x20 MSTORE PUSH1 0x0 SWAP1 DUP2 MSTORE PUSH1 0x40 SWAP1 KECCAK256 SLOAD DUP2 JUMP JUMPDEST PUSH2 0x8B PUSH2 0xBB CALLDATASIZE PUSH1 0x4 PUSH2 0x388 JUMP JUMPDEST PUSH2 0x241 JUMP JUMPDEST PUSH2 0xE7 PUSH32 0x0 DUP2 JUMP JUMPDEST PUSH1 0x40 MLOAD PUSH1 0x1 PUSH1 0x1 PUSH1 0xA0 SHL SUB SWAP1 SWAP2 AND DUP2 MSTORE PUSH1 0x20 ADD PUSH2 0x6F JUMP JUMPDEST PUSH1 0x0 DUP1 SLOAD PUSH1 0x40 MLOAD PUSH4 0x70A08231 PUSH1 0xE0 SHL DUP2 MSTORE ADDRESS PUSH1 0x4 DUP3 ADD MSTORE PUSH32 0x0 PUSH1 0x1 PUSH1 0x1 PUSH1 0xA0 SHL SUB AND SWAP1 PUSH4 0x70A08231 SWAP1 PUSH1 0x24 ADD PUSH1 0x20 PUSH1 0x40 MLOAD DUP1 DUP4 SUB DUP2 DUP7 GAS STATICCALL ISZERO DUP1 ISZERO PUSH2 0x167 JUMPI RETURNDATASIZE PUSH1 0x0 DUP1 RETURNDATACOPY RETURNDATASIZE PUSH1 0x0 REVERT JUMPDEST POP POP POP POP PUSH1 0x40 MLOAD RETURNDATASIZE PUSH1 0x1F NOT PUSH1 0x1F DUP3 ADD AND DUP3 ADD DUP1 PUSH1 0x40 MSTORE POP DUP2 ADD SWAP1 PUSH2 0x18B SWAP2 SWAP1 PUSH2 0x3D1 JUMP JUMPDEST PUSH2 0x195 SWAP1 DUP5 PUSH2 0x400 JUMP JUMPDEST PUSH2 0x19F SWAP2 SWAP1 PUSH2 0x41D JUMP JUMPDEST SWAP1 POP PUSH2 0x1AB CALLER DUP4 PUSH2 0x303 JUMP JUMPDEST PUSH1 0x40 MLOAD PUSH4 0xA9059CBB PUSH1 0xE0 SHL DUP2 MSTORE CALLER PUSH1 0x4 DUP3 ADD MSTORE PUSH1 0x24 DUP2 ADD DUP3 SWAP1 MSTORE PUSH32 0x0 PUSH1 0x1 PUSH1 0x1 PUSH1 0xA0 SHL SUB AND SWAP1 PUSH4 0xA9059CBB SWAP1 PUSH1 0x44 ADD PUSH1 0x20 PUSH1 0x40 MLOAD DUP1 DUP4 SUB DUP2 PUSH1 0x0 DUP8 GAS CALL ISZERO DUP1 ISZERO PUSH2 0x218 JUMPI RETURNDATASIZE PUSH1 0x0 DUP1 RETURNDATACOPY RETURNDATASIZE PUSH1 0x0 REVERT JUMPDEST POP POP POP POP PUSH1 0x40 MLOAD RETURNDATASIZE PUSH1 0x1F NOT PUSH1 0x1F DUP3 ADD AND DUP3 ADD DUP1 PUSH1 0x40 MSTORE POP DUP2 ADD SWAP1 PUSH2 0x23C SWAP2 SWAP1 PUSH2 0x43F JUMP JUMPDEST POP POP POP JUMP JUMPDEST PUSH1 0x0 DUP1 SLOAD PUSH1 0x0 SUB PUSH2 0x253 JUMPI POP DUP1 PUSH2 0x2F5 JUMP JUMPDEST PUSH1 0x40 MLOAD PUSH4 0x70A08231 PUSH1 0xE0 SHL DUP2 MSTORE ADDRESS PUSH1 0x4 DUP3 ADD MSTORE PUSH32 0x0 PUSH1 0x1 PUSH1 0x1 PUSH1 0xA0 SHL SUB AND SWAP1 PUSH4 0x70A08231 SWAP1 PUSH1 0x24 ADD PUSH1 0x20 PUSH1 0x40 MLOAD DUP1 DUP4 SUB DUP2 DUP7 GAS STATICCALL ISZERO DUP1 ISZERO PUSH2 0x2B7 JUMPI RETURNDATASIZE PUSH1 0x0 DUP1 RETURNDATACOPY RETURNDATASIZE PUSH1 0x0 REVERT JUMPDEST POP POP POP POP PUSH1 0x40 MLOAD RETURNDATASIZE PUSH1 0x1F NOT PUSH1 0x1F DUP3 ADD AND DUP3 ADD DUP1 PUSH1 0x40 MSTORE POP DUP2 ADD SWAP1 PUSH2 0x2DB SWAP2 SWAP1 PUSH2 0x3D1 JUMP JUMPDEST PUSH1 0x0 SLOAD PUSH2 0x2E8 SWAP1 DUP5 PUSH2 0x400 JUMP JUMPDEST PUSH2 0x2F2 SWAP2 SWAP1 PUSH2 0x41D JUMP JUMPDEST SWAP1 POP JUMPDEST PUSH2 0x2FF CALLER DUP3 PUSH2 0x34A JUMP JUMPDEST POP POP JUMP JUMPDEST DUP1 PUSH1 0x0 DUP1 DUP3 DUP3 SLOAD PUSH2 0x314 SWAP2 SWAP1 PUSH2 0x461 JUMP JUMPDEST SWAP1 SWAP2 SSTORE POP POP PUSH1 0x1 PUSH1 0x1 PUSH1 0xA0 SHL SUB DUP3 AND PUSH1 0x0 SWAP1 DUP2 MSTORE PUSH1 0x1 PUSH1 0x20 MSTORE PUSH1 0x40 DUP2 KECCAK256 DUP1 SLOAD DUP4 SWAP3 SWAP1 PUSH2 0x341 SWAP1 DUP5 SWAP1 PUSH2 0x461 JUMP JUMPDEST SWAP1 SWAP2 SSTORE POP POP POP POP JUMP JUMPDEST DUP1 PUSH1 0x0 DUP1 DUP3 DUP3 SLOAD PUSH2 0x35B SWAP2 SWAP1 PUSH2 0x474 JUMP JUMPDEST SWAP1 SWAP2 SSTORE POP POP PUSH1 0x1 PUSH1 0x1 PUSH1 0xA0 SHL SUB DUP3 AND PUSH1 0x0 SWAP1 DUP2 MSTORE PUSH1 0x1 PUSH1 0x20 MSTORE PUSH1 0x40 DUP2 KECCAK256 DUP1 SLOAD DUP4 SWAP3 SWAP1 PUSH2 0x341 SWAP1 DUP5 SWAP1 PUSH2 0x474 JUMP JUMPDEST PUSH1 0x0 PUSH1 0x20 DUP3 DUP5 SUB SLT ISZERO PUSH2 0x39A JUMPI PUSH1 0x0 DUP1 REVERT JUMPDEST POP CALLDATALOAD SWAP2 SWAP1 POP JUMP JUMPDEST PUSH1 0x0 PUSH1 0x20 DUP3 DUP5 SUB SLT ISZERO PUSH2 0x3B3 JUMPI PUSH1 0x0 DUP1 REVERT JUMPDEST DUP2 CALLDATALOAD PUSH1 0x1 PUSH1 0x1 PUSH1 0xA0 SHL SUB DUP2 AND DUP2 EQ PUSH2 0x3CA JUMPI PUSH1 0x0 DUP1 REVERT JUMPDEST SWAP4 SWAP3 POP POP POP JUMP JUMPDEST PUSH1 0x0 PUSH1 0x20 DUP3 DUP5 SUB SLT ISZERO PUSH2 0x3E3 JUMPI PUSH1 0x0 DUP1 REVERT JUMPDEST POP MLOAD SWAP2 SWAP1 POP JUMP JUMPDEST PUSH4 0x4E487B71 PUSH1 0xE0 SHL PUSH1 0x0 MSTORE PUSH1 0x11 PUSH1 0x4 MSTORE PUSH1 0x24 PUSH1 0x0 REVERT JUMPDEST DUP1 DUP3 MUL DUP2 ISZERO DUP3 DUP3 DIV DUP5 EQ OR PUSH2 0x417 JUMPI PUSH2 0x417 PUSH2 0x3EA JUMP JUMPDEST SWAP3 SWAP2 POP POP JUMP JUMPDEST PUSH1 0x0 DUP3 PUSH2 0x43A JUMPI PUSH4 0x4E487B71 PUSH1 0xE0 SHL PUSH1 0x0 MSTORE PUSH1 0x12 PUSH1 0x4 MSTORE PUSH1 0x24 PUSH1 0x0 REVERT JUMPDEST POP DIV SWAP1 JUMP JUMPDEST PUSH1 0x0 PUSH1 0x20 DUP3 DUP5 SUB SLT ISZERO PUSH2 0x451 JUMPI PUSH1 0x0 DUP1 REVERT JUMPDEST DUP2 MLOAD DUP1 ISZERO ISZERO DUP2 EQ PUSH2 0x3CA JUMPI PUSH1 0x0 DUP1 REVERT JUMPDEST DUP2 DUP2 SUB DUP2 DUP2 GT ISZERO PUSH2 0x417 JUMPI PUSH2 0x417 PUSH2 0x3EA JUMP JUMPDEST DUP1 DUP3 ADD DUP1 DUP3 GT ISZERO PUSH2 0x417 JUMPI PUSH2 0x417 PUSH2 0x3EA JUMP INVALID LOG2 PUSH5 0x6970667358 0x22 SLT KECCAK256 0xA8 DUP6 0x1E SLT PUSH24 0x4F1869289B4CA4641FE7AAF67C2F1CB253E3D8CC0F19C28A PUSH17 0xCCE364736F6C6343000819003300000000 "
				},
				"gasEstimates": {
					"creation": {
						"codeDepositCost": "242600",
						"executionCost": "infinite",
						"totalCost": "infinite"
					},
					"external": {
						"balanceOf(address)": "2495",
						"deposit(uint256)": "infinite",
						"token()": "infinite",
						"totalSupply()": "2262",
						"withdraw(uint256)": "infinite"
					},
					"internal": {
						"_burn(address,uint256)": "infinite",
						"_mint(address,uint256)": "infinite"
					}
				},
				"methodIdentifiers": {
					"balanceOf(address)": "70a08231",
					"deposit(uint256)": "b6b55f25",
					"token()": "fc0c546a",
					"totalSupply()": "18160ddd",
					"withdraw(uint256)": "2e1a7d4d"
				}
			},
			"storageLayout": {
				"storage": [
					{
						"astId": 73,
						"contract": "Vault.sol:Vault",
						"label": "totalSupply",
						"offset": 0,
						"slot": "0",
						"type": "t_uint256"
					},
					{
						"astId": 77,
						"contract": "Vault.sol:Vault",
						"label": "balanceOf",
						"offset": 0,
						"slot": "1",
						"type": "t_mapping(t_address,t_uint256)"
					}
				],
				"types": {
					"t_address": {
						"encoding": "inplace",
						"label": "address",
						"numberOfBytes": "20"
					},
					"t_mapping(t_address,t_uint256)": {
						"encoding": "mapping",
						"key": "t_address",
						"label": "mapping(address => uint256)",
						"numberOfBytes": "32",
						"value": "t_uint256"
					},
					"t_uint256": {
						"encoding": "inplace",
						"label": "uint256",
						"numberOfBytes": "32"
					}
				}
			},
			"userdoc": {
				"kind": "user",
				"methods": {},
				"version": 1
			}
		}
	}
}